{
  "_format": "hh-sol-artifact-1",
  "contractName": "HealthRecord",
  "sourceName": "contracts/HealthRecord.sol",
  "abi": [
    {
      "inputs": [],
      "stateMutability": "nonpayable",
      "type": "constructor"
    },
    {
      "inputs": [],
      "name": "AccessControlBadConfirmation",
      "type": "error"
    },
    {
      "inputs": [
        {
          "internalType": "address",
          "name": "account",
          "type": "address"
        },
        {
          "internalType": "bytes32",
          "name": "neededRole",
          "type": "bytes32"
        }
      ],
      "name": "AccessControlUnauthorizedAccount",
      "type": "error"
    },
    {
      "inputs": [
        {
          "internalType": "address",
          "name": "sender",
          "type": "address"
        },
        {
          "internalType": "uint256",
          "name": "tokenId",
          "type": "uint256"
        },
        {
          "internalType": "address",
          "name": "owner",
          "type": "address"
        }
      ],
      "name": "ERC721IncorrectOwner",
      "type": "error"
    },
    {
      "inputs": [
        {
          "internalType": "address",
          "name": "operator",
          "type": "address"
        },
        {
          "internalType": "uint256",
          "name": "tokenId",
          "type": "uint256"
        }
      ],
      "name": "ERC721InsufficientApproval",
      "type": "error"
    },
    {
      "inputs": [
        {
          "internalType": "address",
          "name": "approver",
          "type": "address"
        }
      ],
      "name": "ERC721InvalidApprover",
      "type": "error"
    },
    {
      "inputs": [
        {
          "internalType": "address",
          "name": "operator",
          "type": "address"
        }
      ],
      "name": "ERC721InvalidOperator",
      "type": "error"
    },
    {
      "inputs": [
        {
          "internalType": "address",
          "name": "owner",
          "type": "address"
        }
      ],
      "name": "ERC721InvalidOwner",
      "type": "error"
    },
    {
      "inputs": [
        {
          "internalType": "address",
          "name": "receiver",
          "type": "address"
        }
      ],
      "name": "ERC721InvalidReceiver",
      "type": "error"
    },
    {
      "inputs": [
        {
          "internalType": "address",
          "name": "sender",
          "type": "address"
        }
      ],
      "name": "ERC721InvalidSender",
      "type": "error"
    },
    {
      "inputs": [
        {
          "internalType": "uint256",
          "name": "tokenId",
          "type": "uint256"
        }
      ],
      "name": "ERC721NonexistentToken",
      "type": "error"
    },
    {
      "anonymous": false,
      "inputs": [
        {
          "indexed": true,
          "internalType": "address",
          "name": "owner",
          "type": "address"
        },
        {
          "indexed": true,
          "internalType": "address",
          "name": "approved",
          "type": "address"
        },
        {
          "indexed": true,
          "internalType": "uint256",
          "name": "tokenId",
          "type": "uint256"
        }
      ],
      "name": "Approval",
      "type": "event"
    },
    {
      "anonymous": false,
      "inputs": [
        {
          "indexed": true,
          "internalType": "address",
          "name": "owner",
          "type": "address"
        },
        {
          "indexed": true,
          "internalType": "address",
          "name": "operator",
          "type": "address"
        },
        {
          "indexed": false,
          "internalType": "bool",
          "name": "approved",
          "type": "bool"
        }
      ],
      "name": "ApprovalForAll",
      "type": "event"
    },
    {
      "anonymous": false,
      "inputs": [
        {
          "indexed": true,
          "internalType": "bytes32",
          "name": "role",
          "type": "bytes32"
        },
        {
          "indexed": true,
          "internalType": "bytes32",
          "name": "previousAdminRole",
          "type": "bytes32"
        },
        {
          "indexed": true,
          "internalType": "bytes32",
          "name": "newAdminRole",
          "type": "bytes32"
        }
      ],
      "name": "RoleAdminChanged",
      "type": "event"
    },
    {
      "anonymous": false,
      "inputs": [
        {
          "indexed": true,
          "internalType": "bytes32",
          "name": "role",
          "type": "bytes32"
        },
        {
          "indexed": true,
          "internalType": "address",
          "name": "account",
          "type": "address"
        },
        {
          "indexed": true,
          "internalType": "address",
          "name": "sender",
          "type": "address"
        }
      ],
      "name": "RoleGranted",
      "type": "event"
    },
    {
      "anonymous": false,
      "inputs": [
        {
          "indexed": true,
          "internalType": "bytes32",
          "name": "role",
          "type": "bytes32"
        },
        {
          "indexed": true,
          "internalType": "address",
          "name": "account",
          "type": "address"
        },
        {
          "indexed": true,
          "internalType": "address",
          "name": "sender",
          "type": "address"
        }
      ],
      "name": "RoleRevoked",
      "type": "event"
    },
    {
      "anonymous": false,
      "inputs": [
        {
          "indexed": true,
          "internalType": "address",
          "name": "from",
          "type": "address"
        },
        {
          "indexed": true,
          "internalType": "address",
          "name": "to",
          "type": "address"
        },
        {
          "indexed": true,
          "internalType": "uint256",
          "name": "tokenId",
          "type": "uint256"
        }
      ],
      "name": "Transfer",
      "type": "event"
    },
    {
      "anonymous": false,
      "inputs": [
        {
          "indexed": false,
          "internalType": "address",
          "name": "owner",
          "type": "address"
        },
        {
          "indexed": false,
          "internalType": "string",
          "name": "individualName",
          "type": "string"
        },
        {
          "indexed": false,
          "internalType": "uint256",
          "name": "dateOfBirth",
          "type": "uint256"
        },
        {
          "indexed": false,
          "internalType": "string",
          "name": "gender",
          "type": "string"
        },
        {
          "indexed": false,
          "internalType": "string",
          "name": "bloodType",
          "type": "string"
        }
      ],
      "name": "individualDetailsAdded",
      "type": "event"
    },
    {
      "anonymous": false,
      "inputs": [
        {
          "indexed": false,
          "internalType": "string",
          "name": "condition",
          "type": "string"
        },
        {
          "indexed": false,
          "internalType": "uint256",
          "name": "diagnosisDate",
          "type": "uint256"
        },
        {
          "indexed": false,
          "internalType": "string",
          "name": "treatment",
          "type": "string"
        },
        {
          "indexed": false,
          "internalType": "string",
          "name": "doctorName",
          "type": "string"
        }
      ],
      "name": "medicalHistoryAdded",
      "type": "event"
    },
    {
      "anonymous": false,
      "inputs": [
        {
          "indexed": false,
          "internalType": "string",
          "name": "medication",
          "type": "string"
        },
        {
          "indexed": false,
          "internalType": "uint256",
          "name": "prescriptionDate",
          "type": "uint256"
        },
        {
          "indexed": false,
          "internalType": "string",
          "name": "dosage",
          "type": "string"
        },
        {
          "indexed": false,
          "internalType": "string",
          "name": "prescribingDoctorName",
          "type": "string"
        }
      ],
      "name": "prescriptionAdded",
      "type": "event"
    },
    {
      "anonymous": false,
      "inputs": [
        {
          "indexed": false,
          "internalType": "string",
          "name": "testType",
          "type": "string"
        },
        {
          "indexed": false,
          "internalType": "uint256",
          "name": "testDate",
          "type": "uint256"
        },
        {
          "indexed": false,
          "internalType": "string",
          "name": "result",
          "type": "string"
        },
        {
          "indexed": false,
          "internalType": "string",
          "name": "lab",
          "type": "string"
        }
      ],
      "name": "testResultAdded",
      "type": "event"
    },
    {
      "inputs": [],
      "name": "ADMIN_ROLE",
      "outputs": [
        {
          "internalType": "bytes32",
          "name": "",
          "type": "bytes32"
        }
      ],
      "stateMutability": "view",
      "type": "function"
    },
    {
      "inputs": [],
      "name": "DEFAULT_ADMIN_ROLE",
      "outputs": [
        {
          "internalType": "bytes32",
          "name": "",
          "type": "bytes32"
        }
      ],
      "stateMutability": "view",
      "type": "function"
    },
    {
      "inputs": [],
      "name": "HEALTH_FACILITY_ROLE",
      "outputs": [
        {
          "internalType": "bytes32",
          "name": "",
          "type": "bytes32"
        }
      ],
      "stateMutability": "view",
      "type": "function"
    },
    {
      "inputs": [],
      "name": "HEALTH_PROFESSIONAL_ROLE",
      "outputs": [
        {
          "internalType": "bytes32",
          "name": "",
          "type": "bytes32"
        }
      ],
      "stateMutability": "view",
      "type": "function"
    },
    {
      "inputs": [
        {
          "internalType": "address",
          "name": "account",
          "type": "address"
        }
      ],
      "name": "addHealthFacility",
      "outputs": [],
      "stateMutability": "nonpayable",
      "type": "function"
    },
    {
      "inputs": [
        {
          "internalType": "address",
          "name": "account",
          "type": "address"
        }
      ],
      "name": "addHealthProfessional",
      "outputs": [],
      "stateMutability": "nonpayable",
      "type": "function"
    },
    {
      "inputs": [
        {
          "internalType": "address",
          "name": "_owner",
          "type": "address"
        },
        {
          "internalType": "string",
          "name": "_individualName",
          "type": "string"
        },
        {
          "internalType": "uint256",
          "name": "_dateOfBirth",
          "type": "uint256"
        },
        {
          "internalType": "string",
          "name": "_gender",
          "type": "string"
        },
        {
          "internalType": "string",
          "name": "_bloodType",
          "type": "string"
        }
      ],
      "name": "addIndividualDetails",
      "outputs": [],
      "stateMutability": "nonpayable",
      "type": "function"
    },
    {
      "inputs": [
        {
          "internalType": "string",
          "name": "_condition",
          "type": "string"
        },
        {
          "internalType": "uint256",
          "name": "_diagnosisDate",
          "type": "uint256"
        },
        {
          "internalType": "string",
          "name": "_treatment",
          "type": "string"
        },
        {
          "internalType": "string",
          "name": "_doctorName",
          "type": "string"
        }
      ],
      "name": "addMedicalHistory",
      "outputs": [],
      "stateMutability": "nonpayable",
      "type": "function"
    },
    {
      "inputs": [
        {
          "internalType": "string",
          "name": "_medication",
          "type": "string"
        },
        {
          "internalType": "uint256",
          "name": "_prescriptionDate",
          "type": "uint256"
        },
        {
          "internalType": "string",
          "name": "_dosage",
          "type": "string"
        },
        {
          "internalType": "string",
          "name": "_prescribingDoctorName",
          "type": "string"
        }
      ],
      "name": "addPrescription",
      "outputs": [],
      "stateMutability": "nonpayable",
      "type": "function"
    },
    {
      "inputs": [
        {
          "internalType": "string",
          "name": "_testType",
          "type": "string"
        },
        {
          "internalType": "uint256",
          "name": "_testDate",
          "type": "uint256"
        },
        {
          "internalType": "string",
          "name": "_result",
          "type": "string"
        },
        {
          "internalType": "string",
          "name": "_lab",
          "type": "string"
        }
      ],
      "name": "addTestResult",
      "outputs": [],
      "stateMutability": "nonpayable",
      "type": "function"
    },
    {
      "inputs": [
        {
          "internalType": "address",
          "name": "to",
          "type": "address"
        },
        {
          "internalType": "uint256",
          "name": "tokenId",
          "type": "uint256"
        }
      ],
      "name": "approve",
      "outputs": [],
      "stateMutability": "nonpayable",
      "type": "function"
    },
    {
      "inputs": [
        {
          "internalType": "address",
          "name": "owner",
          "type": "address"
        }
      ],
      "name": "balanceOf",
      "outputs": [
        {
          "internalType": "uint256",
          "name": "",
          "type": "uint256"
        }
      ],
      "stateMutability": "view",
      "type": "function"
    },
    {
      "inputs": [
        {
          "internalType": "uint256",
          "name": "tokenId",
          "type": "uint256"
        }
      ],
      "name": "getApproved",
      "outputs": [
        {
          "internalType": "address",
          "name": "",
          "type": "address"
        }
      ],
      "stateMutability": "view",
      "type": "function"
    },
    {
      "inputs": [
        {
          "internalType": "address",
          "name": "owner",
          "type": "address"
        }
      ],
      "name": "getIndividualDetails",
      "outputs": [
        {
          "components": [
            {
              "internalType": "address",
              "name": "owner",
              "type": "address"
            },
            {
              "internalType": "string",
              "name": "individualName",
              "type": "string"
            },
            {
              "internalType": "uint256",
              "name": "dateOfBirth",
              "type": "uint256"
            },
            {
              "internalType": "string",
              "name": "gender",
              "type": "string"
            },
            {
              "internalType": "string",
              "name": "bloodType",
              "type": "string"
            }
          ],
          "internalType": "struct HealthRecord.individualEntry[]",
          "name": "",
          "type": "tuple[]"
        }
      ],
      "stateMutability": "view",
      "type": "function"
    },
    {
      "inputs": [
        {
          "internalType": "address",
          "name": "owner",
          "type": "address"
        }
      ],
      "name": "getMedicalHistory",
      "outputs": [
        {
          "components": [
            {
              "internalType": "string",
              "name": "condition",
              "type": "string"
            },
            {
              "internalType": "uint256",
              "name": "diagnosisDate",
              "type": "uint256"
            },
            {
              "internalType": "string",
              "name": "treatment",
              "type": "string"
            },
            {
              "internalType": "string",
              "name": "doctorName",
              "type": "string"
            }
          ],
          "internalType": "struct HealthRecord.medicalEntry[]",
          "name": "",
          "type": "tuple[]"
        }
      ],
      "stateMutability": "view",
      "type": "function"
    },
    {
      "inputs": [
        {
          "internalType": "address",
          "name": "owner",
          "type": "address"
        }
      ],
      "name": "getPrescription",
      "outputs": [
        {
          "components": [
            {
              "internalType": "string",
              "name": "medication",
              "type": "string"
            },
            {
              "internalType": "uint256",
              "name": "prescriptionDate",
              "type": "uint256"
            },
            {
              "internalType": "string",
              "name": "dosage",
              "type": "string"
            },
            {
              "internalType": "string",
              "name": "prescribingDoctorName",
              "type": "string"
            }
          ],
          "internalType": "struct HealthRecord.prescriptionEntry[]",
          "name": "",
          "type": "tuple[]"
        }
      ],
      "stateMutability": "view",
      "type": "function"
    },
    {
      "inputs": [
        {
          "internalType": "bytes32",
          "name": "role",
          "type": "bytes32"
        }
      ],
      "name": "getRoleAdmin",
      "outputs": [
        {
          "internalType": "bytes32",
          "name": "",
          "type": "bytes32"
        }
      ],
      "stateMutability": "view",
      "type": "function"
    },
    {
      "inputs": [
        {
          "internalType": "address",
          "name": "owner",
          "type": "address"
        }
      ],
      "name": "getTestResult",
      "outputs": [
        {
          "components": [
            {
              "internalType": "string",
              "name": "testType",
              "type": "string"
            },
            {
              "internalType": "uint256",
              "name": "testDate",
              "type": "uint256"
            },
            {
              "internalType": "string",
              "name": "result",
              "type": "string"
            },
            {
              "internalType": "string",
              "name": "lab",
              "type": "string"
            }
          ],
          "internalType": "struct HealthRecord.testResultEntry[]",
          "name": "",
          "type": "tuple[]"
        }
      ],
      "stateMutability": "view",
      "type": "function"
    },
    {
      "inputs": [
        {
          "internalType": "bytes32",
          "name": "role",
          "type": "bytes32"
        },
        {
          "internalType": "address",
          "name": "account",
          "type": "address"
        }
      ],
      "name": "grantRole",
      "outputs": [],
      "stateMutability": "nonpayable",
      "type": "function"
    },
    {
      "inputs": [
        {
          "internalType": "bytes32",
          "name": "role",
          "type": "bytes32"
        },
        {
          "internalType": "address",
          "name": "account",
          "type": "address"
        }
      ],
      "name": "hasRole",
      "outputs": [
        {
          "internalType": "bool",
          "name": "",
          "type": "bool"
        }
      ],
      "stateMutability": "view",
      "type": "function"
    },
    {
      "inputs": [
        {
          "internalType": "address",
          "name": "owner",
          "type": "address"
        },
        {
          "internalType": "address",
          "name": "operator",
          "type": "address"
        }
      ],
      "name": "isApprovedForAll",
      "outputs": [
        {
          "internalType": "bool",
          "name": "",
          "type": "bool"
        }
      ],
      "stateMutability": "view",
      "type": "function"
    },
    {
      "inputs": [],
      "name": "name",
      "outputs": [
        {
          "internalType": "string",
          "name": "",
          "type": "string"
        }
      ],
      "stateMutability": "view",
      "type": "function"
    },
    {
      "inputs": [
        {
          "internalType": "uint256",
          "name": "tokenId",
          "type": "uint256"
        }
      ],
      "name": "ownerOf",
      "outputs": [
        {
          "internalType": "address",
          "name": "",
          "type": "address"
        }
      ],
      "stateMutability": "view",
      "type": "function"
    },
    {
      "inputs": [
        {
          "internalType": "address",
          "name": "account",
          "type": "address"
        }
      ],
      "name": "removeHealthFacility",
      "outputs": [],
      "stateMutability": "nonpayable",
      "type": "function"
    },
    {
      "inputs": [
        {
          "internalType": "address",
          "name": "account",
          "type": "address"
        }
      ],
      "name": "removeHealthProfessional",
      "outputs": [],
      "stateMutability": "nonpayable",
      "type": "function"
    },
    {
      "inputs": [
        {
          "internalType": "bytes32",
          "name": "role",
          "type": "bytes32"
        },
        {
          "internalType": "address",
          "name": "callerConfirmation",
          "type": "address"
        }
      ],
      "name": "renounceRole",
      "outputs": [],
      "stateMutability": "nonpayable",
      "type": "function"
    },
    {
      "inputs": [
        {
          "internalType": "bytes32",
          "name": "role",
          "type": "bytes32"
        },
        {
          "internalType": "address",
          "name": "account",
          "type": "address"
        }
      ],
      "name": "revokeRole",
      "outputs": [],
      "stateMutability": "nonpayable",
      "type": "function"
    },
    {
      "inputs": [
        {
          "internalType": "address",
          "name": "from",
          "type": "address"
        },
        {
          "internalType": "address",
          "name": "to",
          "type": "address"
        },
        {
          "internalType": "uint256",
          "name": "tokenId",
          "type": "uint256"
        }
      ],
      "name": "safeTransferFrom",
      "outputs": [],
      "stateMutability": "nonpayable",
      "type": "function"
    },
    {
      "inputs": [
        {
          "internalType": "address",
          "name": "from",
          "type": "address"
        },
        {
          "internalType": "address",
          "name": "to",
          "type": "address"
        },
        {
          "internalType": "uint256",
          "name": "tokenId",
          "type": "uint256"
        },
        {
          "internalType": "bytes",
          "name": "data",
          "type": "bytes"
        }
      ],
      "name": "safeTransferFrom",
      "outputs": [],
      "stateMutability": "nonpayable",
      "type": "function"
    },
    {
      "inputs": [
        {
          "internalType": "address",
          "name": "operator",
          "type": "address"
        },
        {
          "internalType": "bool",
          "name": "approved",
          "type": "bool"
        }
      ],
      "name": "setApprovalForAll",
      "outputs": [],
      "stateMutability": "nonpayable",
      "type": "function"
    },
    {
      "inputs": [
        {
          "internalType": "bytes4",
          "name": "interfaceId",
          "type": "bytes4"
        }
      ],
      "name": "supportsInterface",
      "outputs": [
        {
          "internalType": "bool",
          "name": "",
          "type": "bool"
        }
      ],
      "stateMutability": "view",
      "type": "function"
    },
    {
      "inputs": [],
      "name": "symbol",
      "outputs": [
        {
          "internalType": "string",
          "name": "",
          "type": "string"
        }
      ],
      "stateMutability": "view",
      "type": "function"
    },
    {
      "inputs": [
        {
          "internalType": "uint256",
          "name": "tokenId",
          "type": "uint256"
        }
      ],
      "name": "tokenURI",
      "outputs": [
        {
          "internalType": "string",
          "name": "",
          "type": "string"
        }
      ],
      "stateMutability": "view",
      "type": "function"
    },
    {
      "inputs": [
        {
          "internalType": "address",
          "name": "from",
          "type": "address"
        },
        {
          "internalType": "address",
          "name": "to",
          "type": "address"
        },
        {
          "internalType": "uint256",
          "name": "tokenId",
          "type": "uint256"
        }
      ],
      "name": "transferFrom",
      "outputs": [],
      "stateMutability": "nonpayable",
      "type": "function"
    }
  ],
  "bytecode": "0x60806040523480156200001157600080fd5b506040518060400160405280600c81526020016b1219585b1d1a149958dbdc9960a21b81525060405180604001604052806002815260200161242960f11b815250816000908162000063919062000208565b50600162000072828262000208565b505050620000a77fa49807205ce4d355092ef5a8a18f56e8913cf4a201fbe287825b095693c2177533620000ae60201b60201c565b50620002d4565b60008281526006602090815260408083206001600160a01b038516845290915281205460ff16620001575760008381526006602090815260408083206001600160a01b03861684529091529020805460ff191660011790556200010e3390565b6001600160a01b0316826001600160a01b0316847f2f8788117e7eff1d82e926ec794901d17c78024a50270940304540a733656f0d60405160405180910390a45060016200015b565b5060005b92915050565b634e487b7160e01b600052604160045260246000fd5b600181811c908216806200018c57607f821691505b602082108103620001ad57634e487b7160e01b600052602260045260246000fd5b50919050565b601f82111562000203576000816000526020600020601f850160051c81016020861015620001de5750805b601f850160051c820191505b81811015620001ff57828155600101620001ea565b5050505b505050565b81516001600160401b0381111562000224576200022462000161565b6200023c8162000235845462000177565b84620001b3565b602080601f8311600181146200027457600084156200025b5750858301515b600019600386901b1c1916600185901b178555620001ff565b600085815260208120601f198616915b82811015620002a55788860151825594840194600190910190840162000284565b5085821015620002c45787850151600019600388901b60f8161c191681555b5050505050600190811b01905550565b6127bc80620002e46000396000f3fe608060405234801561001057600080fd5b50600436106102065760003560e01c80636352211e1161011a578063b88d4fde116100ad578063d547741f1161007c578063d547741f14610498578063d708b1aa146104ab578063d80185e4146104be578063e985e9c5146104de578063ff0b8e53146104f157600080fd5b8063b88d4fde1461044a578063bf8d5a1c1461045d578063c87b56dd14610472578063d0c2b1431461048557600080fd5b806395d89b41116100e957806395d89b4114610414578063a217fddf1461041c578063a22cb46514610424578063a468d83e1461043757600080fd5b80636352211e146103c657806370a08231146103d957806375b238fc146103ec57806391d148541461040157600080fd5b806327bf78e61161019d578063422b38f41161016c578063422b38f41461034d57806342842e0e146103605780635986de61146103735780635c1055a51461039357806360f72dc5146103b357600080fd5b806327bf78e6146102f25780632e91f61b146103075780632f2ff15d1461032757806336568abe1461033a57600080fd5b806315089a71116101d957806315089a711461028857806323b872dd1461029b578063248a9ca3146102ae57806324a23dfd146102df57600080fd5b806301ffc9a71461020b57806306fdde0314610233578063081812fc14610248578063095ea7b314610273575b600080fd5b61021e610219366004611e33565b610504565b60405190151581526020015b60405180910390f35b61023b610515565b60405161022a9190611ea0565b61025b610256366004611eb3565b6105a7565b6040516001600160a01b03909116815260200161022a565b610286610281366004611ee8565b6105d0565b005b610286610296366004611fbe565b6105df565b6102866102a9366004612050565b6106b1565b6102d16102bc366004611eb3565b60009081526006602052604090206001015490565b60405190815260200161022a565b6102866102ed366004611fbe565b610741565b6102d160008051602061274783398151915281565b61031a61031536600461208c565b61082c565b60405161022a9190612102565b610286610335366004612166565b610a61565b610286610348366004612166565b610a86565b61028661035b366004611fbe565b610abe565b61028661036e366004612050565b610bc2565b61038661038136600461208c565b610bdd565b60405161022a9190612192565b6103a66103a136600461208c565b610e07565b60405161022a91906121e9565b6102866103c136600461208c565b611047565b61025b6103d4366004611eb3565b611093565b6102d16103e736600461208c565b61109e565b6102d160008051602061276783398151915281565b61021e61040f366004612166565b6110e6565b61023b611111565b6102d1600081565b6102866104323660046122ad565b611120565b6102866104453660046122e9565b61112b565b61028661045836600461238c565b611232565b6102d160008051602061272783398151915281565b61023b610480366004611eb3565b611249565b61028661049336600461208c565b6112be565b6102866104a6366004612166565b61130a565b6102866104b936600461208c565b61132f565b6104d16104cc36600461208c565b61137b565b60405161022a91906123fc565b61021e6104ec366004612453565b6115a5565b6102866104ff36600461208c565b6115d3565b600061050f8261161f565b92915050565b6060600080546105249061247d565b80601f01602080910402602001604051908101604052809291908181526020018280546105509061247d565b801561059d5780601f106105725761010080835404028352916020019161059d565b820191906000526020600020905b81548152906001019060200180831161058057829003601f168201915b5050505050905090565b60006105b282611644565b506000828152600460205260409020546001600160a01b031661050f565b6105db82823361167d565b5050565b60408051608081018252858152602080820186905281830185905260608201849052336000908152600a82529283208054600181018255908452922081519192839260049091029091019081906106369082612507565b5060208201516001820155604082015160028201906106559082612507565b506060820151600382019061066a9082612507565b5050507f26a1fd607003cef160dd758ba22671fa238c0e9b3586324612ddd0777579bcdb858585856040516106a294939291906125c7565b60405180910390a15050505050565b6001600160a01b0382166106e057604051633250574960e11b8152600060048201526024015b60405180910390fd5b60006106ed83833361168a565b9050836001600160a01b0316816001600160a01b03161461073b576040516364283d7b60e01b81526001600160a01b03808616600483015260248201849052821660448201526064016106d7565b50505050565b60008051602061272783398151915261075981611783565b60408051608081018252868152602080820187905281830186905260608201859052336000908152600882529283208054600181018255908452922081519192839260049091029091019081906107b09082612507565b5060208201516001820155604082015160028201906107cf9082612507565b50606082015160038201906107e49082612507565b5050507fc2363ed921783021f8d677d272c73f7c9d7c94551757ad40ebfab2dcf8c62ee88686868660405161081c94939291906125c7565b60405180910390a1505050505050565b6001600160a01b0381166000908152600a60209081526040808320805482518185028101850190935280835260609492939192909184015b82821015610a5657838290600052602060002090600402016040518060800160405290816000820180546108979061247d565b80601f01602080910402602001604051908101604052809291908181526020018280546108c39061247d565b80156109105780601f106108e557610100808354040283529160200191610910565b820191906000526020600020905b8154815290600101906020018083116108f357829003601f168201915b50505050508152602001600182015481526020016002820180546109339061247d565b80601f016020809104026020016040519081016040528092919081815260200182805461095f9061247d565b80156109ac5780601f10610981576101008083540402835291602001916109ac565b820191906000526020600020905b81548152906001019060200180831161098f57829003601f168201915b505050505081526020016003820180546109c59061247d565b80601f01602080910402602001604051908101604052809291908181526020018280546109f19061247d565b8015610a3e5780601f10610a1357610100808354040283529160200191610a3e565b820191906000526020600020905b815481529060010190602001808311610a2157829003601f168201915b50505050508152505081526020019060010190610864565b505050509050919050565b600082815260066020526040902060010154610a7c81611783565b61073b8383611790565b6001600160a01b0381163314610aaf5760405163334bd91960e11b815260040160405180910390fd5b610ab98282611824565b505050565b600080516020612727833981519152610ad681611783565b600080516020612747833981519152610aee81611783565b6040805160808101825287815260208082018890528183018790526060820186905233600090815260098252928320805460018101825590845292208151919283926004909102909101908190610b459082612507565b506020820151600182015560408201516002820190610b649082612507565b5060608201516003820190610b799082612507565b5050507f9422fed95cb5e81938fe2b98b55396d67db96a9ebaee3e29b5072a9cb48f4f8e87878787604051610bb194939291906125c7565b60405180910390a150505050505050565b610ab983838360405180602001604052806000815250611232565b6001600160a01b0381166000908152600860209081526040808320805482518185028101850190935280835260609492939192909184015b82821015610a565783829060005260206000209060040201604051806080016040529081600082018054610c489061247d565b80601f0160208091040260200160405190810160405280929190818152602001828054610c749061247d565b8015610cc15780601f10610c9657610100808354040283529160200191610cc1565b820191906000526020600020905b815481529060010190602001808311610ca457829003601f168201915b5050505050815260200160018201548152602001600282018054610ce49061247d565b80601f0160208091040260200160405190810160405280929190818152602001828054610d109061247d565b8015610d5d5780601f10610d3257610100808354040283529160200191610d5d565b820191906000526020600020905b815481529060010190602001808311610d4057829003601f168201915b50505050508152602001600382018054610d769061247d565b80601f0160208091040260200160405190810160405280929190818152602001828054610da29061247d565b8015610def5780601f10610dc457610100808354040283529160200191610def565b820191906000526020600020905b815481529060010190602001808311610dd257829003601f168201915b50505050508152505081526020019060010190610c15565b6001600160a01b0381166000908152600760209081526040808320805482518185028101850190935280835260609492939192909184015b82821015610a565760008481526020908190206040805160a081019091526005850290910180546001600160a01b031682526001810180549293919291840191610e889061247d565b80601f0160208091040260200160405190810160405280929190818152602001828054610eb49061247d565b8015610f015780601f10610ed657610100808354040283529160200191610f01565b820191906000526020600020905b815481529060010190602001808311610ee457829003601f168201915b5050505050815260200160028201548152602001600382018054610f249061247d565b80601f0160208091040260200160405190810160405280929190818152602001828054610f509061247d565b8015610f9d5780601f10610f7257610100808354040283529160200191610f9d565b820191906000526020600020905b815481529060010190602001808311610f8057829003601f168201915b50505050508152602001600482018054610fb69061247d565b80601f0160208091040260200160405190810160405280929190818152602001828054610fe29061247d565b801561102f5780601f106110045761010080835404028352916020019161102f565b820191906000526020600020905b81548152906001019060200180831161101257829003601f168201915b50505050508152505081526020019060010190610e3f565b61105f600080516020612767833981519152336110e6565b61107b5760405162461bcd60e51b81526004016106d790612611565b6105db60008051602061272783398151915282611790565b600061050f82611644565b60006001600160a01b0382166110ca576040516322718ad960e21b8152600060048201526024016106d7565b506001600160a01b031660009081526003602052604090205490565b60009182526006602090815260408084206001600160a01b0393909316845291905290205460ff1690565b6060600180546105249061247d565b6105db338383611891565b60008051602061276783398151915261114381611783565b6040805160a0810182526001600160a01b038881168252602080830189815283850189905260608401889052608084018790523360009081526007835294852080546001808201835591875292909520845160059093020180546001600160a01b031916929093169190911782555191928392908201906111c49082612507565b5060408201516002820155606082015160038201906111e39082612507565b50608082015160048201906111f89082612507565b5050507f4ca3a3e68da9d7b0430e1860a3a364bb42397dd0f52142c9b0fd154f0836f2568787878787604051610bb1959493929190612641565b61123d8484846106b1565b61073b84848484611930565b606061125482611644565b50600061126c60408051602081019091526000815290565b9050600081511161128c57604051806020016040528060008152506112b7565b8061129684611a59565b6040516020016112a792919061269d565b6040516020818303038152906040525b9392505050565b6112d6600080516020612767833981519152336110e6565b6112f25760405162461bcd60e51b81526004016106d790612611565b6105db60008051602061274783398151915282611824565b60008281526006602052604090206001015461132581611783565b61073b8383611824565b611347600080516020612767833981519152336110e6565b6113635760405162461bcd60e51b81526004016106d790612611565b6105db60008051602061272783398151915282611824565b6001600160a01b0381166000908152600960209081526040808320805482518185028101850190935280835260609492939192909184015b82821015610a5657838290600052602060002090600402016040518060800160405290816000820180546113e69061247d565b80601f01602080910402602001604051908101604052809291908181526020018280546114129061247d565b801561145f5780601f106114345761010080835404028352916020019161145f565b820191906000526020600020905b81548152906001019060200180831161144257829003601f168201915b50505050508152602001600182015481526020016002820180546114829061247d565b80601f01602080910402602001604051908101604052809291908181526020018280546114ae9061247d565b80156114fb5780601f106114d0576101008083540402835291602001916114fb565b820191906000526020600020905b8154815290600101906020018083116114de57829003601f168201915b505050505081526020016003820180546115149061247d565b80601f01602080910402602001604051908101604052809291908181526020018280546115409061247d565b801561158d5780601f106115625761010080835404028352916020019161158d565b820191906000526020600020905b81548152906001019060200180831161157057829003601f168201915b505050505081525050815260200190600101906113b3565b6001600160a01b03918216600090815260056020908152604080832093909416825291909152205460ff1690565b6115eb600080516020612767833981519152336110e6565b6116075760405162461bcd60e51b81526004016106d790612611565b6105db60008051602061274783398151915282611790565b60006001600160e01b03198216637965db0b60e01b148061050f575061050f82611aec565b6000818152600260205260408120546001600160a01b03168061050f57604051637e27328960e01b8152600481018490526024016106d7565b610ab98383836001611b3c565b6000828152600260205260408120546001600160a01b03908116908316156116b7576116b7818486611c42565b6001600160a01b038116156116f5576116d4600085600080611b3c565b6001600160a01b038116600090815260036020526040902080546000190190555b6001600160a01b03851615611724576001600160a01b0385166000908152600360205260409020805460010190555b60008481526002602052604080822080546001600160a01b0319166001600160a01b0389811691821790925591518793918516917fddf252ad1be2c89b69c2b068fc378daa952ba7f163c4a11628f55a4df523b3ef91a4949350505050565b61178d8133611ca6565b50565b600061179c83836110e6565b61181c5760008381526006602090815260408083206001600160a01b03861684529091529020805460ff191660011790556117d43390565b6001600160a01b0316826001600160a01b0316847f2f8788117e7eff1d82e926ec794901d17c78024a50270940304540a733656f0d60405160405180910390a450600161050f565b50600061050f565b600061183083836110e6565b1561181c5760008381526006602090815260408083206001600160a01b0386168085529252808320805460ff1916905551339286917ff6391f5c32d9c69d2a47ea670b442974b53935d1edc7fd64eb21e047a839171b9190a450600161050f565b6001600160a01b0382166118c357604051630b61174360e31b81526001600160a01b03831660048201526024016106d7565b6001600160a01b03838116600081815260056020908152604080832094871680845294825291829020805460ff191686151590811790915591519182527f17307eab39ab6107e8899845ad3d59bd9653f200f220920489ca2b5937696c31910160405180910390a3505050565b6001600160a01b0383163b1561073b57604051630a85bd0160e11b81526001600160a01b0384169063150b7a02906119729033908890879087906004016126cc565b6020604051808303816000875af19250505080156119ad575060408051601f3d908101601f191682019092526119aa91810190612709565b60015b611a16573d8080156119db576040519150601f19603f3d011682016040523d82523d6000602084013e6119e0565b606091505b508051600003611a0e57604051633250574960e11b81526001600160a01b03851660048201526024016106d7565b805181602001fd5b6001600160e01b03198116630a85bd0160e11b14611a5257604051633250574960e11b81526001600160a01b03851660048201526024016106d7565b5050505050565b60606000611a6683611cdf565b600101905060008167ffffffffffffffff811115611a8657611a86611f12565b6040519080825280601f01601f191660200182016040528015611ab0576020820181803683370190505b5090508181016020015b600019016f181899199a1a9b1b9c1cb0b131b232b360811b600a86061a8153600a8504945084611aba57509392505050565b60006001600160e01b031982166380ac58cd60e01b1480611b1d57506001600160e01b03198216635b5e139f60e01b145b8061050f57506301ffc9a760e01b6001600160e01b031983161461050f565b8080611b5057506001600160a01b03821615155b15611c12576000611b6084611644565b90506001600160a01b03831615801590611b8c5750826001600160a01b0316816001600160a01b031614155b8015611b9f5750611b9d81846115a5565b155b15611bc85760405163a9fbf51f60e01b81526001600160a01b03841660048201526024016106d7565b8115611c105783856001600160a01b0316826001600160a01b03167f8c5be1e5ebec7d5bd14f71427d1e84f3dd0314c0f7b2291e5b200ac8c7c3b92560405160405180910390a45b505b5050600090815260046020526040902080546001600160a01b0319166001600160a01b0392909216919091179055565b611c4d838383611db7565b610ab9576001600160a01b038316611c7b57604051637e27328960e01b8152600481018290526024016106d7565b60405163177e802f60e01b81526001600160a01b0383166004820152602481018290526044016106d7565b611cb082826110e6565b6105db5760405163e2517d3f60e01b81526001600160a01b0382166004820152602481018390526044016106d7565b60008072184f03e93ff9f4daa797ed6e38ed64bf6a1f0160401b8310611d1e5772184f03e93ff9f4daa797ed6e38ed64bf6a1f0160401b830492506040015b6d04ee2d6d415b85acef81000000008310611d4a576d04ee2d6d415b85acef8100000000830492506020015b662386f26fc100008310611d6857662386f26fc10000830492506010015b6305f5e1008310611d80576305f5e100830492506008015b6127108310611d9457612710830492506004015b60648310611da6576064830492506002015b600a831061050f5760010192915050565b60006001600160a01b03831615801590611e155750826001600160a01b0316846001600160a01b03161480611df15750611df184846115a5565b80611e1557506000828152600460205260409020546001600160a01b038481169116145b949350505050565b6001600160e01b03198116811461178d57600080fd5b600060208284031215611e4557600080fd5b81356112b781611e1d565b60005b83811015611e6b578181015183820152602001611e53565b50506000910152565b60008151808452611e8c816020860160208601611e50565b601f01601f19169290920160200192915050565b6020815260006112b76020830184611e74565b600060208284031215611ec557600080fd5b5035919050565b80356001600160a01b0381168114611ee357600080fd5b919050565b60008060408385031215611efb57600080fd5b611f0483611ecc565b946020939093013593505050565b634e487b7160e01b600052604160045260246000fd5b600067ffffffffffffffff80841115611f4357611f43611f12565b604051601f8501601f19908116603f01168101908282118183101715611f6b57611f6b611f12565b81604052809350858152868686011115611f8457600080fd5b858560208301376000602087830101525050509392505050565b600082601f830112611faf57600080fd5b6112b783833560208501611f28565b60008060008060808587031215611fd457600080fd5b843567ffffffffffffffff80821115611fec57600080fd5b611ff888838901611f9e565b955060208701359450604087013591508082111561201557600080fd5b61202188838901611f9e565b9350606087013591508082111561203757600080fd5b5061204487828801611f9e565b91505092959194509250565b60008060006060848603121561206557600080fd5b61206e84611ecc565b925061207c60208501611ecc565b9150604084013590509250925092565b60006020828403121561209e57600080fd5b6112b782611ecc565b60008151608084526120bc6080850182611e74565b905060208301516020850152604083015184820360408601526120df8282611e74565b915050606083015184820360608601526120f98282611e74565b95945050505050565b600060208083016020845280855180835260408601915060408160051b87010192506020870160005b8281101561215957603f198886030184526121478583516120a7565b9450928501929085019060010161212b565b5092979650505050505050565b6000806040838503121561217957600080fd5b8235915061218960208401611ecc565b90509250929050565b600060208083016020845280855180835260408601915060408160051b87010192506020870160005b8281101561215957603f198886030184526121d78583516120a7565b945092850192908501906001016121bb565b600060208083018184528085518083526040925060408601915060408160051b87010184880160005b8381101561229f57888303603f19018552815180516001600160a01b031684528781015160a08986018190529061224b82870182611e74565b91505087820151888601526060808301518683038288015261226d8382611e74565b925050506080808301519250858203818701525061228b8183611e74565b968901969450505090860190600101612212565b509098975050505050505050565b600080604083850312156122c057600080fd5b6122c983611ecc565b9150602083013580151581146122de57600080fd5b809150509250929050565b600080600080600060a0868803121561230157600080fd5b61230a86611ecc565b9450602086013567ffffffffffffffff8082111561232757600080fd5b61233389838a01611f9e565b955060408801359450606088013591508082111561235057600080fd5b61235c89838a01611f9e565b9350608088013591508082111561237257600080fd5b5061237f88828901611f9e565b9150509295509295909350565b600080600080608085870312156123a257600080fd5b6123ab85611ecc565b93506123b960208601611ecc565b925060408501359150606085013567ffffffffffffffff8111156123dc57600080fd5b8501601f810187136123ed57600080fd5b61204487823560208401611f28565b600060208083016020845280855180835260408601915060408160051b87010192506020870160005b8281101561215957603f198886030184526124418583516120a7565b94509285019290850190600101612425565b6000806040838503121561246657600080fd5b61246f83611ecc565b915061218960208401611ecc565b600181811c9082168061249157607f821691505b6020821081036124b157634e487b7160e01b600052602260045260246000fd5b50919050565b601f821115610ab9576000816000526020600020601f850160051c810160208610156124e05750805b601f850160051c820191505b818110156124ff578281556001016124ec565b505050505050565b815167ffffffffffffffff81111561252157612521611f12565b6125358161252f845461247d565b846124b7565b602080601f83116001811461256a57600084156125525750858301515b600019600386901b1c1916600185901b1785556124ff565b600085815260208120601f198616915b828110156125995788860151825594840194600190910190840161257a565b50858210156125b75787850151600019600388901b60f8161c191681555b5050505050600190811b01905550565b6080815260006125da6080830187611e74565b85602084015282810360408401526125f28186611e74565b905082810360608401526126068185611e74565b979650505050505050565b60208082526016908201527521b0b63632b91034b9903737ba1030b71030b236b4b760511b604082015260600190565b6001600160a01b038616815260a06020820181905260009061266590830187611e74565b856040840152828103606084015261267d8186611e74565b905082810360808401526126918185611e74565b98975050505050505050565b600083516126af818460208801611e50565b8351908301906126c3818360208801611e50565b01949350505050565b6001600160a01b03858116825284166020820152604081018390526080606082018190526000906126ff90830184611e74565b9695505050505050565b60006020828403121561271b57600080fd5b81516112b781611e1d56fe5680b2be07f030669209721cf9b7207875fda9c53a0421848c535f6c96c42ad4d25b4f129ab4c25858fe6edce1a159533bd4c8a4c65adccc5fb7e8457bbde597a49807205ce4d355092ef5a8a18f56e8913cf4a201fbe287825b095693c21775a264697066735822122026935c6fe95f813c21434c3f20a46685c8be9b3395bd03cb186b639f5cbea3b564736f6c63430008180033",
  "linkReferences": {},
  "deployedLinkReferences": {}
}